:4000000080673030303030307e3030307e3030307e3030307e3030307e3030307d0e9a7e7d0e467e7e3030307d086b7e7d090f7e7d0e467e7d0e467e7d060c7e7d060d7e39
:400040007d08c87e7d09667e7e3030307e3030307e3030307d0e467e7e3030307e3030307e3030307e303030711062fa0062e38770ef50202850402850602862e33841feae
:40008000fb50804e62e33855f80055f900711062e00270ef62e338627105627505627905627d0562d10750004e62d30762d00062d50062d40071c07c05aa62d0005004570a
:4000c000a30828531a18750900284b511a800475090062e300082860d574a04b187509000828531a187509000828a01c53191875090008283f1a471affb0065dd57460d510
:40010000187a19bfeb8fc9187509000828531950003f1a471affb0085dd57460d550007a19bfef188faa18711043e32070ef62e000711062e00343e78070ef62e2007c094a
:40014000e78fff50107f303030303030303030303030303030303030303030303030303030303030303030303030303030303030303030303030303030303030303030304b
:400180003030303030303030303030303030303030303030303030303030303030303030076675313333370053746f7070696e67206d6f746f727300526573657474696e29
:4001c0006720636f756e743200526573657474696e6720636f756e74310053657474696e6720736572766f20332070756c736520776964746820746f3a200053657474697f
:400200006e6720736572766f20322070756c736520776964746820746f3a200053657474696e6720736572766f20312070756c736520776964746820746f3a2000536574d2
:4002400074696e6720736572766f20302070756c736520776964746820746f3a200053657474696e672050574d2064757479206379636c6520746f3a200053657474696e6b
:40028000672076656c6f6369747920746f3a2000506172616d3a2000436f6d6d616e643a20004b49505220626f747320726f6c6c206f75742100330031003200230321002a
:4002c00022004700450046003703350036002f002dff2e00430041ff42002700251f26e72b00294e2a033f003d003e003b0039003a006028660063056500e600e700d6000a
:40030000b010b100b200b333b433b501b610b855b900ba10bb33bc33bd10be00c001c100c220c333c433c580c600c855c900ca30cb33cc33cd00ce006c006d006e006f00cf
:40034000ff3020310e3240202221e022404420450c4640342235c036402c212d162e44402141114245240125162640282129362a473c053df13e40380d39013a456100690c
:4003800000600062006733683363006600d100d300d000d200e1b1e200df19de00dd00e700ff0020202020202020202030303030302020202020202020202020202020203a
:4003c000202020904040404040404040404040404040400c0c0c0c0c0c0c0c0c0c40404040404040090909090909010101010101010101010101010101010101010140404b
:40040000404040400a0a0a0a0a0a02020202020202020202020202020202020202024040404020000000000000000000000000000000000000000000000000000000000038
:40044000000000000000000000000000000000000000000000000000000000000000000000000000000000000000000000000000000000000000000000000000000000007c
:400480000000000000000000000000000000000000000000000000000000000000000000000000128e70ef620000711062000a6201f570ef6203f562020a71106202006228
:4004c000030070ef62010062040071106204f062050f70ef62070f620620711062060062070070ef62050062080071106208076209f870ef620b08620ad17110620a2862c6
:400500000b2870ef620928620c007110620c00620d0070ef620f00620e007110620e00620f0070ef620d00621000711062100062110070ef621300621200711062120062e3
:40054000130070ef621100621400711062140062150070ef621700621600711062160062170070ef621500621800711062180062190070ef621b00621a007110621a006273
:400580001b0070ef621900621c007110621c00621d0070ef621f00621e007110621e00621f0070ef621d0070ef7f7c05b17c04a57f1070ef500067500257b67c05cc5001b3
:4005c00067500357417c05cc70ef207f380210084f56fc00d00456fc01182070ef62e30010082839ffa01f4f48fc01a003711054fd18207509001008284f59fd61001820f4
:400600007509008fd738fc703f71c07f7e08105dd30858015d3f082108b00418805e1821e0a0122c00493e002120a050413ffe433f0180485d3e470001b0413907b0142e27
:40064000000162d300703f7180560200703f7100802a3920c02662d3003c010fc011703f7180560200703f71002e0010800e703f71805402703f7100755a011860d32018a4
:400680007e43e14043e1807f41e1bf41e17f7f71102101a00743381070ef7f4138ef70ef7f2901603b603f912a7f413bfe413ffe7f60397f5d3b7f5d3e7f5d3f7f2101712f
:4006c000103901a0064138ef800443381070ef7f082101a00643e180800441e17f182102a00643e140800441e1bf7f303132333435363738394142434445460867676767ad
:40070000210fffe7900f18210fffe090087f4b9fea5b9fe77f493b10affc60397f493f08affc5d3e7f5d3f082108b00418800b5d3e4b1821a0b0034b7f50007f5d3f21e812
:40074000082108b0071829014b80071821e04b5d3e7f70bf60d35200a0069fb9758ff8703f71c07f70bf62d3074f52fba01a7bfb52fc59fd60d35200493b10affc60394f6b
:4007800062d30777fd8fe4703f71c07f4f3dfa00b0063dfb00a01d1052fc59fd28493b10affc60392007fd010ffc0017fb011ffa008fdb703f71c07f081028a00b9f5620ad
:4007c0001875dff5748ff238fe7f500d9f47500a9f437f62d00055020062d00055010026000062d0005527007f62d000510021017f62d000510021f026000f7f62d000519d
:40080000017f70bf62d000500202275c62d3005200b0041080333920b01175762752003c270fbff310560000801f107576273c270faff35200a0123920bff1560000762725
:400840003c270fb00455270f20103d0000b00a2057005b703f71c07f205000703f71c07f62d000500202275c50007f7e43e1047f41e1fb7f4327017f4127fe7f60255b60f8
:40088000297f60265b602a7f5d2a5c5d267f4f5d2a085d26084127fe71105d250862250070ef5d285d2a085d245d26085200602a5201602671105202602570ef43270118f0
:4008c0002038fd703f71c07f7e43df017f41dffe7f4343017f4143fe7f60417f60427f5d427f4f5d42084143fe71105d410862410070ef5d405d4208520060427110520174
:40090000604170ef4343011838fe703f71c07f7e43e1087f41e1f77f432f017f412ffe7f602d7f602e7f5d2e7f4f5d2e08412ffe71105d2d08622d0070ef5d2c5d2e085201
:4009400000602e71105201602d70ef432f011838fe703f71c07f43e1207f41e1df7f4337017f4137fe7f7e43df027f41dffd7f085ddf0841dffd71105d46086246005d453b
:400980000862450470ef434701711018604518604670ef62dbfd1860df187f4147fe7f43e1017f41e1fe7f4323017f4123fe7f43e1107f41e1ef7f085de10841e1ef7110e5
:4009c0005d32086232005d310862310470ef433301711018603118603270ef62dbef1860e1187f4133fe7f104f3804107c09a77c095e7c09b77c096f7c099f7c09567c091b
:400a0000af7c09677c09187c08d17c087450007c06a12043e02043e10143e1207101107c07ca50020850a25c187c07b87c07ca2080c25d08215062d000532a5d08212862e4
:400a4000d0005328107c072520540062d0003c2600b01a3d0000a0151052007c07152062d000552601520054015600003d0000a08362d0003c2600a07b62d00050011057f1
:400a8000a02820531a52003a1ab03e62d00055260062d0005124030362d000531962d00051230b0262d00060d550003f19500108520208520308520108904938fc62d000e7
:400ac000552400552300802c62d0005124030362d000531962d00051230b0262d00060d552003f191052007c07152062d00076240e23008f3e38fc208fff62d000551900e4
:400b0000551a007f104f38023df900a033107c07ca50020850985c187c07b8201052fc7c07157c07ca50020850905c187c07b8201052fa0852fb5c187c07527c07ca2052b2
:400b4000fc54015600003d0000b0063d0161a0713d0000b0063d0162a0993d0000b0063d0163a0c13d0000b0063d0164a0fb3d0000b0063d0165a13c3d0000b0063d016630
:400b8000a1643d0000b0063d0167a18c3d0000b0063d0168a1b43d0000b0063d0169a1cf3d0000b0063d016aa1ea3d0000b0063d016ba2173d0000b0063d016ca244827182
:400bc0003df900a27e107c07ca500208507a5c187c07b82052fa0852fb087c0f3238fe1062d000511a085119207c070e7c07ca2082513df900a24c107c07ca500208505e1a
:400c00005c187c07b82052fa0852fb087c0f3238fe1062d000511a085119207c070e7c07ca20821f62d00052fb531952fa60d550003f19107c07ca209ec0500008500a08c2
:400c400062d000511a0851190852fa0852fb087c107338fa1062d000511a0851195c187c07527c07ca2081db3df900a02c107c07ca500208503d5c187c07b82052fa085297
:400c8000fb087c0f3238fe1062d000511a085119207c070e7c07ca2052fa0852fb087c0f3238fe1062d000511a085119207c08822081903df900a18b107c07ca5002085086
:400cc0001c5c187c07b82052fa0852fb087c0f3238fe1062d000511a085119207c070e7c07ca20815e3df900a159107c07ca50010850fb5c187c07b82052fa0852fb087c2c
:400d00000f3238fe1062d000511a085119207c070e7c07ca20812c3df900a127107c07ca50010850da5c187c07b82052fa0852fb087c0f3238fe1062d000511a08511920ca
:400d40007c070e7c07ca2080fa107c07ca2062d000512262d000531962d000512162d00010085119207c070e7c07ca2080d5107c07ca2062d000511e62d000531962d00082
:400d8000511d62d00010085119207c070e7c07ca2080b03df900a022107c07ca50010850c95c187c07b87c07ca2062d000551f0055200055210055220062d000551f0055dd
:400dc000200055210055220080793df900a022107c07ca50010850b85c187c07b87c07ca2062d000551b00551c00551d00551e0062d000551b00551c00551d00551e0080ab
:400e0000423df900a01d107c07ca50010850a85c187c07b87c07ca50007c092350007c08dc201050007c092350007c08dc208013107c07ca50010850a15c187c07b87c07c7
:400e4000ca2038fe207f71c0085dd0085d08215062d000532562d0003c2a00b01a62d0003c2520b01262d0000622010e21000e20000e1f00802062d0003c2a00b01862d0d7
:400e8000003c2508b01062d0001622011e21001e20001e1f001860d0187e71c0085dd0085d08212862d000532962d0003c2800b01a62d0003c2910b01262d000061e010e0e
:400ec0001d000e1c000e1b00802062d0003c2800b01862d0003c2904b01062d000161e011e1d001e1c001e1b001860d0187e104f7c0ef920703f71c07f5dd00862d000501e
:400f0000005313531455121066fc6cfb6b136b1451131bfa51141bf9c009531452fa1c1377fc7a12bfe3511354fa511454f91860d07f104f3804800677fc0ffb0062d0006e
:400f400052fc531952fb60d43e1953195000085119087c126d38fe62d0003c1a00bfda3c1900bfd556030056020062d00052fc531952fb60d43e19392db00e560301560223
:400f80000077fc0ffb00801762d00052fc531952fb60d43e19392bb00677fc0ffb00560100560000807b62d00052fc531952fb531a5119010154fc511a090054fb5201534f
:400fc000175200531855150a5516005514005513003c1600b0063c1500a01a70fb6e166e15d00c62d0005117041451180c1365176b188fde5f17145f181362d000511a6055
:40100000d43e195319551a0051170219531951180a1a531a511911305401511a1900540062d00052fc531952fb60d43e1953195000085119087c124c38fe62d0003c1a0057
:40104000bf653c1900bf603d0200b0063d0300a01462d00052017311ff531952007319ff531a800c62d000520153195200531a38fc207f104f380952fa540352f954023d01
:40108000f900b02f3dfa00b02a62d00052fc531952fb60d550303f1952fc0101531952fb090060d550003f1952fc531952fb531a819752fa110052f931801980d0293df767
:4010c00000b0243df80ab01f56060162d0005203735319520273531a511901015403511a09005402800456060052fc540152fb540062d00052f70852f808520208520308d8
:401100007c0eee38fe18531918531a51195408511a54075009130852073180531450801a14c02862d000520153195200531a511901015401511a0900540052080130531872
:40114000511a60d551183f19802662d000520153195200531a511901015401511a09005400520801575318511a60d551183f1952f70852f80852020852030862d0007c0e99
:40118000ee18540318540238fe3d0200bf643d0300bf5f3d0600a02062d000520153195200531a511901015401511a09005400511a60d5502d3f1962d0005201531952007a
:4011c000531a511901ff5401511a09ff5400511a60d550003f1952fc540552fb5404805462d00052055319520460d43e195406520553195204531a511901015405511a09a5
:4012000000540452015317520060d43e175318511a60d551183f19520153195200531a511901ff5401511a09ff5400511a60d552063f195205130152041b00cfa462d0001d
:4012400052fc531952fb531a38f7207f104f62d00052fc01a3531952fb090310581928205319551a00261904261a00207f104f62d00052fc01a3531952fb0903105819282d
:40128000205319551a00261910261a00207f001b000c002803000000ff00303030303030303030303030303030303030303030303030303030303030303030303030303094
:4012c00030303030303030303030303030303030303030303030303030303030303030303030303030303030303030303030303030303030303030303030303030303030ee
:4013000030303030303030303030303030303030303030303030303030303030303030303030303030303030303030303030303030303030303030303030303030303030ad
:40134000303030303030303030303030303030303030303030303030303030303030303030303030303030303030303030303030303030303030303030303030303030306d
:40138000303030303030303030303030303030303030303030303030303030303030303030303030303030303030303030303030303030303030303030303030303030302d
:020000040010ea
:020000040020da
:0200000001728b
:00000001ff
