:4000000080673030303030307e3030307e3030307e3030307e3030307e3030307d0d9e7e7d0d4a7e7e3030307d08667e7d090a7e7d0d4a7e7d0d4a7e7d06077e7d06087e41
:400040007d08c37e7d09617e7e3030307e3030307e3030307d0d4a7e7e3030307e3030307e3030307e303030711062fa0062e38770ef50202850402850602862e33841feb5
:40008000fb50804e62e33855f80055f900711062e00270ef62e338627105627505627905627d0562d10750004e62d30762d00062d50062d40071c07c05a562d0005004570f
:4000c0009e0828531a18750900284b511a800475090062e300082860d574a04b187509000828531a187509000828a01c53191875090008283f1a471affb0065dd57460d515
:40010000187a19bfeb8fc9187509000828531950003f1a471affb0085dd57460d550007a19bfef188faa18711043e32070ef62e000711062e00343e78070ef62e2007c094a
:40014000e28fff50107f3030303030303030303030303030303030303030303030303030303030303030303030303030303030303030303030303030303030303030303050
:4001800030303030303030303030303030303030303030303030303030303030303030306162636465666768696a6b6c6675313333370053746f7070696e67206d6f746f95
:4001c000727300526573657474696e6720636f756e743200526573657474696e6720636f756e74310053657474696e6720736572766f20332070756c7365207769647468b2
:4002000020746f3a200053657474696e6720736572766f20322070756c736520776964746820746f3a200053657474696e6720736572766f20312070756c736520776964d1
:40024000746820746f3a200053657474696e6720736572766f20302070756c736520776964746820746f3a200053657474696e672050574d2064757479206379636c6520ba
:40028000746f3a200053657474696e672076656c6f6369747920746f3a200020004b49505220626f747320726f6c6c206f757421003300310032002303210022004700450c
:4002c0000046003703350036002f002dff2e00430041ff42002700251f26e72b00294e2a033f003d003e003b0039003a006028660063056500e600e700d600b010b100b295
:4003000000b333b433b501b610b855b900ba10bb33bc33bd10be00c001c100c220c333c433c580c600c855c900ca30cb33cc33cd00ce006c006d006e006f00ff3020310e64
:400340003240202221e022404420450c4640342235c036402c212d162e44402141114245240125162640282129362a473c053df13e40380d39013a456100690060006200d8
:400380006733683363006600d100d300d000d200e1b1e200df19de00dd00e700ff0020202020202020202030303030302020202020202020202020202020202020209040cc
:4003c00040404040404040404040404040400c0c0c0c0c0c0c0c0c0c4040404040404009090909090901010101010101010101010101010101010101014040404040400a71
:400400000a0a0a0a0a020202020202020202020202020202020202020240404040200000000000000000000000000000000000000000000000000000000000000000000042
:40044000000000000000000000000000000000000000000000000000000000000000000000000000000000000000000000000000000000000000000000000000000000007c
:40048000000000000000000000000000000000000000000000000000000000000000119270ef620000711062000a6201f570ef6203f562020a711062020062030070ef6261
:4004c000010062040071106204f062050f70ef62070f620620711062060062070070ef62050062080071106208076209f870ef620b08620ad17110620a28620b2870ef6296
:400500000928620c007110620c00620d0070ef620f00620e007110620e00620f0070ef620d00621000711062100062110070ef621300621200711062120062130070ef6203
:400540001100621400711062140062150070ef621700621600711062160062170070ef621500621800711062180062190070ef621b00621a007110621a00621b0070ef626b
:400580001900621c007110621c00621d0070ef621f00621e007110621e00621f0070ef621d0070ef7f7c05ac7c04a07f1070ef500067500257b17c05c75001675003573c56
:4005c0007c05c770ef207f380210084f56fc00d00456fc01182070ef62e30010082839ffa01f4f48fc01a003711054fd18207509001008284f59fd610018207509008fd767
:4006000038fc703f71c07f7e08105dd30858015d3f082108b00418805e1821e0a0122c00493e002120a050413ffe433f0180485d3e470001b0413907b0142e000162d300d5
:40064000703f7180560200703f7100802a3920c02662d3003c010fc011703f7180560200703f71002e0010800e703f71805402703f7100755a011860d320187e43e14043b5
:40068000e1807f41e1bf41e17f7f71102101a00743381070ef7f4138ef70ef7f2901603b603f912a7f413bfe413ffe7f60397f5d3b7f5d3e7f5d3f7f210171103901a00664
:4006c0004138ef800443381070ef7f082101a00643e180800441e17f182102a00643e140800441e1bf7f303132333435363738394142434445460867676767210fffe790f7
:400700000f18210fffe090087f4b9fea5b9fe77f493b10affc60397f493f08affc5d3e7f5d3f082108b00418800b5d3e4b1821a0b0034b7f50007f5d3f21e8082108b007d0
:400740001829014b80071821e04b5d3e7f70bf60d35200a0069fb9758ff8703f71c07f70bf62d3074f52fba01a7bfb52fc59fd60d35200493b10affc60394f62d30777fda3
:400780008fe4703f71c07f4f3dfa00b0063dfb00a01d1052fc59fd28493b10affc60392007fd010ffc0017fb011ffa008fdb703f71c07f081028a00b9f56201875dff57488
:4007c0008ff238fe7f500d9f47500a9f437f62d00055020062d00055010026000062d0005526007f62d000510021017f62d000510021f026000f7f62d00051017f70bf6262
:40080000d000500202265c62d3005200b0041080333920b01175762652003c260fbff310560000801f107576263c260faff35200a0123920bff156000076263c260fb00417
:4008400055260f20103d0000b00a2057005b703f71c07f205000703f71c07f62d000500202265c50007f7e43e1047f41e1fb7f4327017f4127fe7f60255b60297f60265b97
:40088000602a7f5d2a5c5d267f4f5d2a085d26084127fe71105d250862250070ef5d285d2a085d245d26085200602a5201602671105202602570ef432701182038fd703f75
:4008c00071c07f7e43df017f41dffe7f4343017f4143fe7f60417f60427f5d427f4f5d42084143fe71105d410862410070ef5d405d42085200604271105201604170ef4335
:4009000043011838fe703f71c07f7e43e1087f41e1f77f432f017f412ffe7f602d7f602e7f5d2e7f4f5d2e08412ffe71105d2d08622d0070ef5d2c5d2e085200602e711035
:400940005201602d70ef432f011838fe703f71c07f43e1207f41e1df7f4337017f4137fe7f7e43df027f41dffd7f085ddf0841dffd71105d46086246005d45086245047027
:40098000ef434701711018604518604670ef62dbfd1860df187f4147fe7f43e1017f41e1fe7f4323017f4123fe7f43e1107f41e1ef7f085de10841e1ef71105d32086232dd
:4009c000005d310862310470ef433301711018603118603270ef62dbef1860e1187f4133fe7f104f3805710143e02043e10143e120107c09a27c09597c09b27c096a7c093a
:400a00009a7c09517c09aa7c09627c09137c08cc7c086f7c07ce50017c06cb50007c069c500208509d5c187c07b37c07c520809c5d08215062d00053295d08212862d0001f
:400a40005327107c07e42062d0003900a079107c07fd62d000531a5a192051195401511a54003c1a00b0063c1900a05b62d00052015319520060d43e195404801c62d00051
:400a800052015319520060d43e19531a52035317520260d5511a3f17107c07fd62d000531a5a192051195401511a54003c1a00bfcd3c1900bfc850010852020852030852c2
:400ac0000408901838fc107c07ce208f6438fb208fff62d000551900551a007f104f38023df900a02b62d0005a191619041050070851195c187c074d500208509b5c187c67
:400b000007b3201052fa0852fb5c187c074d2052fc540156000082233df900a22a1050020850855c187c07b32052fa0852fb087c0e3638fe1062d000511a085119207c07bc
:400b4000092082033df900a1fe1050020850695c187c07b32052fa0852fb087c0e3638fe1062d000511a085119207c07092081d762d00052fb531952fa60d550003f199f70
:400b800051500008500a0862d000511a0851190852fa0852fb087c0f7738fa1062d000511a0851195c187c074d20819b3df900a0261050020850485c187c07b32052fa087b
:400bc00052fb087c0e3638fe1062d000511a085119207c07092052fa0852fb087c0e3638fe1062d000511a085119207c087d2081563df900a1511050020850275c187c07e9
:400c0000b32052fa0852fb087c0e3638fe1062d000511a085119207c070920812a3df900a1251050020850065c187c07b32052fa0852fb087c0e3638fe1062d000511a08d2
:400c40005119207c07092080fe3df900a0f91050010850e55c187c07b32052fa0852fb087c0e3638fe1062d000511a085119207c07092080d262d000512262d00053196208
:400c8000d000512162d00010085119207c07092080b562d000511e62d000531962d000511d62d00010085119207c07092080983df900a01c1050010850d45c187c07b3207d
:400cc00062d000551f0055200055210055220062d000551f0055200055210055220080673df900a01c1050010850c35c187c07b32062d000551b00551c00551d00551e00cd
:400d000062d000551b00551c00551d00551e0080363df900a0171050010850b35c187c07b350007c091e50007c08d7201050007c091e50007c08d720800d1050010850ac84
:400d40005c187c07b32038fe207f71c0085dd0085d08215062d000532562d0003c2900b01a62d0003c2520b01262d0000622010e21000e20000e1f00802062d0003c2900f4
:400d8000b01862d0003c2508b01062d0001622011e21001e20001e1f001860d0187e71c0085dd0085d08212862d000532862d0003c2700b01a62d0003c2810b01262d0004b
:400dc000061e010e1d000e1c000e1b00802062d0003c2700b01862d0003c2804b01062d000161e011e1d001e1c001e1b001860d0187e104f7c0dfd20703f71c07f5dd0086d
:400e000062d00050005313531455121066fc6cfb6b136b1451131bfa51141bf9c009531452fa1c1377fc7a12bfe3511354fa511454f91860d07f104f3804800677fc0ffb1f
:400e40000062d00052fc531952fb60d43e1953195000085119087c117138fe62d0003c1a00bfda3c1900bfd556030056020062d00052fc531952fb60d43e19392db00e564b
:400e8000030156020077fc0ffb00801762d00052fc531952fb60d43e19392bb00677fc0ffb00560100560000807b62d00052fc531952fb531a5119010154fc511a09005495
:400ec000fb520153175200531855150a5516005514005513003c1600b0063c1500a01a70fb6e166e15d00c62d0005117041451180c1365176b188fde5f17145f181362d080
:400f000000511a60d43e195319551a0051170219531951180a1a531a511911305401511a1900540062d00052fc531952fb60d43e1953195000085119087c115038fe62d0e0
:400f4000003c1a00bf653c1900bf603d0200b0063d0300a01462d00052017311ff531952007319ff531a800c62d000520153195200531a38fc207f104f380952fa54035238
:400f8000f954023df900b02f3dfa00b02a62d00052fc531952fb60d550303f1952fc0101531952fb090060d550003f1952fc531952fb531a819752fa110052f93180198009
:400fc000d0293df700b0243df80ab01f56060162d0005203735319520273531a511901015403511a09005402800456060052fc540152fb540062d00052f70852f808520211
:40100000085203087c0df238fe18531918531a51195408511a54075009130852073180531450801a14c02862d000520153195200531a511901015401511a090054005208a7
:4010400001305318511a60d551183f19802662d000520153195200531a511901015401511a09005400520801575318511a60d551183f1952f70852f8085202085203086258
:40108000d0007c0df218540318540238fe3d0200bf643d0300bf5f3d0600a02062d000520153195200531a511901015401511a09005400511a60d5502d3f1962d0005201dc
:4010c00053195200531a511901ff5401511a09ff5400511a60d550003f1952fc540552fb5404805462d00052055319520460d43e195406520553195204531a511901015461
:4011000005511a0900540452015317520060d43e175318511a60d551183f19520153195200531a511901ff5401511a09ff5400511a60d552063f195205130152041b00cf7b
:40114000a462d00052fc531952fb531a38f7207f104f62d00052fc019e531952fb090310581928205319551a00261904261a00207f104f62d00052fc019e531952fb09030b
:4011800010581928205319551a00261910261a00207f001b000b002703000000ff0030303030303030303030303030303030303030303030303030303030303030303030ae
:4011c00030303030303030303030303030303030303030303030303030303030303030303030303030303030303030303030303030303030303030303030303030303030ef
:4012000030303030303030303030303030303030303030303030303030303030303030303030303030303030303030303030303030303030303030303030303030303030ae
:40124000303030303030303030303030303030303030303030303030303030303030303030303030303030303030303030303030303030303030303030303030303030306e
:40128000303030303030303030303030303030303030303030303030303030303030303030303030303030303030303030303030303030303030303030303030303030302e
:020000040010ea
:020000040020da
:02000000e0829c
:00000001ff
