:4000000080673030303030307e3030307e3030307e3030307e3030307e3030307d0d627e7d0d0e7e7e3030307d08517e7d08f57e7d0d0e7e7d0d0e7e7d05f27e7d05f37e88
:400040007d08ae7e7d094c7e7e3030307e3030307e3030307d0d0e7e7e3030307e3030307e3030307e303030711062fa0062e38770ef50202850402850602862e33841fe1b
:40008000fb50804e62e33855f80055f900711062e00270ef62e338627105627505627905627d0562d10750004e62d30762d00062d50062d40071c07c059062d00050045724
:4000c000890828531a18750900284b511a800475090062e300082860d574a04b187509000828531a187509000828a01c53191875090008283f1a471affb0065dd57460d52a
:40010000187a19bfeb8fc9187509000828531950003f1a471affb0085dd57460d550007a19bfef188faa18711043e32070ef62e000711062e00343e78070ef62e2007c094a
:40014000cd8fff50107f3030303030303030303030303030303030303030303030303030303030303030303030303030303030303030303030303030303030303030303065
:4001800030303030303030303030303030303030303030303030303030303030303030306162636465666768696a6b6c076675313333370053746f7070696e67206d6f74fd
:4001c0006f727300526573657474696e6720636f756e743200526573657474696e6720636f756e74310053657474696e6720736572766f20332070756c73652077696474ab
:400200006820746f3a200053657474696e6720736572766f20322070756c736520776964746820746f3a200053657474696e6720736572766f20312070756c7365207769cd
:4002400064746820746f3a200053657474696e6720736572766f20302070756c736520776964746820746f3a200053657474696e672050574d2064757479206379636c6576
:4002800020746f3a200053657474696e672076656c6f6369747920746f3a20003300310032002303210022004700450046003703350036002f002dff2e00430041ff420053
:4002c0002700251f26e72b00294e2a033f003d003e003b0039003a006028660063056500e600e700d600b010b100b200b333b433b501b610b855b900ba10bb33bc33bd104b
:40030000be00c001c100c220c333c433c580c600c855c900ca30cb33cc33cd00ce006c006d006e006f00ff3020310e3240202221e022404420450c4640342235c036402ca8
:40034000212d162e44402141114245240125162640282129362a473c053df13e40380d39013a4561006900600062006733683363006600d100d300d000d200e1b1e200df80
:4003800019de00dd00e700ff002020202020202020203030303030202020202020202020202020202020202020904040404040404040404040404040400c0c0c0c0c0c0c8f
:4003c0000c0c0c4040404040404009090909090901010101010101010101010101010101010101014040404040400a0a0a0a0a0a02020202020202020202020202020202f3
:400400000202020240404040200000000000000000000000000000000000000000000000000000000000000000000000000000000000000000000000000000000000000094
:40044000000000000000000000000000000000000000000000000000000000000000000000000000000000000000000000000000000000000000000000000000000000007c
:40048000000000000000000000115670ef620000711062000a6201f570ef6203f562020a711062020062030070ef62010062040071106204f062050f70ef62070f6206208a
:4004c000711062060062070070ef62050062080071106208076209f870ef620b08620ad17110620a28620b2870ef620928620c007110620c00620d0070ef620f00620e006c
:400500007110620e00620f0070ef620d00621000711062100062110070ef621300621200711062120062130070ef621100621400711062140062150070ef621700621600fb
:40054000711062160062170070ef621500621800711062180062190070ef621b00621a007110621a00621b0070ef621900621c007110621c00621d0070ef621f00621e003b
:400580007110621e00621f0070ef621d0070ef7f7c05977c048b7f1070ef5000675002579c7c05b2500167500357277c05b270ef207f380210084f56fc00d00456fc0118d1
:4005c0002070ef62e30010082839ffa01f4f48fc01a003711054fd18207509001008284f59fd610018207509008fd738fc703f71c07f7e08105dd30858015d3f082108b0a8
:400600000418805e1821e0a0122c00493e002120a050413ffe433f0180485d3e470001b041390db0142e000162d300703f7180560200703f7100802a3920c02662d3003c94
:40064000010fc011703f7180560200703f71002e0010800e703f71805402703f7100755a011860d320187e43e14043e1807f41e1bf41e17f7f71102101a00743381070ef12
:400680007f4138ef70ef7f2901603b603f912a7f413bfe413ffe7f60397f5d3b7f5d3e7f5d3f7f210171103901a0064138ef800443381070ef7f082101a00643e18080042c
:4006c00041e17f182102a00643e140800441e1bf7f303132333435363738394142434445460867676767210fffe7900f18210fffe090087f4b9fea5b9fe77f493b10affc84
:4007000060397f493f08affc5d3e7f5d3f082108b00418800b5d3e4b1821a0b0034b7f50007f5d3f21e8082108b0071829014b80071821e04b5d3e7f70bf60d35200a006a4
:400740009fb9758ff8703f71c07f70bf62d3074f52fba01a7bfb52fc59fd60d35200493b10affc60394f62d30777fd8fe4703f71c07f4f3dfa00b0063dfb00a01d1052fc2e
:4007800059fd28493b10affc60392007fd010ffc0017fb011ffa008fdb703f71c07f081028a00b9f56201875dff5748ff238fe7f500d9f47500a9f437f62d00055020062ca
:4007c000d00055010026000062d0005526007f62d000510021017f62d000510021f026000f7f62d00051017f70bf62d000500202265c62d3005200b0041080333920b011c3
:4008000075762652003c260fbff310560000801f107576263c260faff35200a0123920bff156000076263c260fb00455260f20103d0000b00a2057005b703f71c07f205083
:4008400000703f71c07f62d000500202265c50007f7e43e1047f41e1fb7f4327017f4127fe7f60255b60297f60265b602a7f5d2a5c5d267f4f5d2a085d26084127fe7110ab
:400880005d250862250070ef5d285d2a085d245d26085200602a5201602671105202602570ef432701182038fd703f71c07f7e43df017f41dffe7f4343017f4143fe7f60df
:4008c000417f60427f5d427f4f5d42084143fe71105d410862410070ef5d405d42085200604271105201604170ef4343011838fe703f71c07f7e43e1087f41e1f77f432fe5
:40090000017f412ffe7f602d7f602e7f5d2e7f4f5d2e08412ffe71105d2d08622d0070ef5d2c5d2e085200602e71105201602d70ef432f011838fe703f71c07f43e1207f37
:4009400041e1df7f4337017f4137fe7f7e43df027f41dffd7f085ddf0841dffd71105d46086246005d450862450470ef434701711018604518604670ef62dbfd1860df18cb
:400980007f4147fe7f43e1017f41e1fe7f4323017f4123fe7f43e1107f41e1ef7f085de10841e1ef71105d32086232005d310862310470ef43330171101860311860327014
:4009c000ef62dbef1860e1187f4133fe7f104f3802710143e02043e10143e120107c098d7c09447c099d7c09557c09857c093c7c09957c094d7c08fe7c08b77c085a5000bb
:400a00007c06872080445d08215062d00053295d08212862d0005327107c070b2062d000531a52015317520060d5511a3f1752015319520060d43e193900a00e500108525b
:400a40000008520108901338fd8fbc38fe208fff62d000551900551a007f104f38055600003dfa00a0481050010852fb0852fc087c074a38fd208036107c070b2062d00091
:400a800054001052007c06fb2062d0005124030262d000531962d00051230b0162d00060d552003f1962d00076240e230062d00050011057ac2820531a52003a1abfba620d
:400ac000d00055240055230062d00052fc531952fb60d43e19540456030082233dfa00a22a1050020850865c187c079e205201085202087c0dfa38fe1062d000511a0851ad
:400b000019207c06f42082033dfa00a1fe10500208506a5c187c079e205201085202087c0dfa38fe1062d000511a085119207c06f42081d762d00052025319520160d5504b
:400b4000003f199f0b500008500a0862d000511a085119085201085202087c0f3b38fa1062d000511a0851195c187c073820819b3dfa00a0261050020850495c187c079ed4
:400b8000205201085202087c0dfa38fe1062d000511a085119207c06f4205201085202087c0dfa38fe1062d000511a085119207c08682081563dfa00a15110500208502833
:400bc0005c187c079e205201085202087c0dfa38fe1062d000511a085119207c06f420812a3dfa00a1251050020850075c187c079e205201085202087c0dfa38fe1062d02b
:400c000000511a085119207c06f42080fe3dfa00a0f91050010850e65c187c079e205201085202087c0dfa38fe1062d000511a085119207c06f42080d262d000512262d011
:400c400000531962d000512162d00010085119207c06f42080b562d000511e62d000531962d000511d62d00010085119207c06f42080983dfa00a01c1050010850d55c186f
:400c80007c079e2062d000551f0055200055210055220062d000551f0055200055210055220080673dfa00a01c1050010850c45c187c079e2062d000551b00551c00551d52
:400cc00000551e0062d000551b00551c00551d00551e0080363dfa00a0171050010850b45c187c079e50007c090950007c08c2201050007c090950007c08c220800d1050be
:400d0000010850ad5c187c079e2038fb207f71c0085dd0085d08215062d000532562d0003c2900b01a62d0003c2520b01262d0000622010e21000e20000e1f00802062d0ab
:400d4000003c2900b01862d0003c2508b01062d0001622011e21001e20001e1f001860d0187e71c0085dd0085d08212862d000532862d0003c2700b01a62d0003c2810b06a
:400d80001262d000061e010e1d000e1c000e1b00802062d0003c2700b01862d0003c2804b01062d000161e011e1d001e1c001e1b001860d0187e104f7c0dc120703f71c059
:400dc0007f5dd00862d00050005313531455121066fc6cfb6b136b1451131bfa51141bf9c009531452fa1c1377fc7a12bfe3511354fa511454f91860d07f104f3804800629
:400e000077fc0ffb0062d00052fc531952fb60d43e1953195000085119087c113538fe62d0003c1a00bfda3c1900bfd556030056020062d00052fc531952fb60d43e19398b
:400e40002db00e56030156020077fc0ffb00801762d00052fc531952fb60d43e19392bb00677fc0ffb00560100560000807b62d00052fc531952fb531a5119010154fc510b
:400e80001a090054fb520153175200531855150a5516005514005513003c1600b0063c1500a01a70fb6e166e15d00c62d0005117041451180c1365176b188fde5f17145fa6
:400ec000181362d000511a60d43e195319551a0051170219531951180a1a531a511911305401511a1900540062d00052fc531952fb60d43e1953195000085119087c111468
:400f000038fe62d0003c1a00bf653c1900bf603d0200b0063d0300a01462d00052017311ff531952007319ff531a800c62d000520153195200531a38fc207f104f380952b3
:400f4000fa540352f954023df900b02f3dfa00b02a62d00052fc531952fb60d550303f1952fc0101531952fb090060d550003f1952fc531952fb531a819752fa110052f9f0
:400f800031801980d0293df700b0243df80ab01f56060162d0005203735319520273531a511901015403511a09005402800456060052fc540152fb540062d00052f708525b
:400fc000f8085202085203087c0db638fe18531918531a51195408511a54075009130852073180531450801a14c02862d000520153195200531a511901015401511a09007e
:401000005400520801305318511a60d551183f19802662d000520153195200531a511901015401511a09005400520801575318511a60d551183f1952f70852f808520208a9
:4010400052030862d0007c0db618540318540238fe3d0200bf643d0300bf5f3d0600a02062d000520153195200531a511901015401511a09005400511a60d5502d3f1962bc
:40108000d000520153195200531a511901ff5401511a09ff5400511a60d550003f1952fc540552fb5404805462d00052055319520460d43e195406520553195204531a51ed
:4010c0001901015405511a0900540452015317520060d43e175318511a60d551183f19520153195200531a511901ff5401511a09ff5400511a60d552063f1952051301523b
:40110000041b00cfa462d00052fc531952fb531a38f7207f104f62d00052fc0189531952fb090310581928205319551a00261904261a00207f104f62d00052fc01895319e0
:4011400052fb090310581928205319551a00261910261a00207f001b000b002703000000ff0030303030303030303030303030303030303030303030303030303030303055
:40118000303030303030303030303030303030303030303030303030303030303030303030303030303030303030303030303030303030303030303030303030303030302f
:4011c00030303030303030303030303030303030303030303030303030303030303030303030303030303030303030303030303030303030303030303030303030303030ef
:4012000030303030303030303030303030303030303030303030303030303030303030303030303030303030303030303030303030303030303030303030303030303030ae
:40124000303030303030303030303030303030303030303030303030303030303030303030303030303030303030303030303030303030303030303030303030303030306e
:020000040010ea
:020000040020da
:02000000d252da
:00000001ff
