:4000000080673030303030307e3030307e3030307e3030307e3030307e3030307d11367e7d10e27e7e3030307d098f7e7d0a337e7d10e27e7d10e27e7d06d37e7d06d47ee8
:400040007d09ec7e7d0a8a7e7e3030307d09327e7e3030307d10e27e7e3030307e3030307e3030307e303030711062fa0062e38770ef50202850402850602862e33841fe9e
:40008000fb50804e62e33855f80055f900711062e00270ef62e338627105627505627905627d0562d10750004e62d30762d00062d50062d40071c07c067162d00050055741
:4000c0004a0828531a18750900284b511a800475090062e300082860d574a04b187509000828531a187509000828a01c53191875090008283f1a471affb0065dd57460d569
:40010000187a19bfeb8fc9187509000828531950003f1a471affb0085dd57460d550007a19bfef188faa18711043e32070ef62e000711062e00343e78070ef62e2007c0b48
:400140000b8fff50107f3030303030303030303030303030303030303030303030303030303030303030303030303030303030303030303030303030303030303030303027
:4001800030303030303030303030303030303030303030303030303030303030303030300c076675313333370053657474696e67206472697665206d6f646520746f207211
:4001c000696768742e0053657474696e67206472697665206d6f646520746f206c6566742e0053657474696e67206472697665206d6f646520746f206261636b776172640d
:400200002e0053657474696e67206472697665206d6f646520746f20666f72776172642e0053746f7070696e67206d6f746f727300526573657474696e6720636f756e7457
:400240003200526573657474696e6720636f756e743100456e636f646572203220636f756e743a2000456e636f646572203120636f756e743a200053746f7070696e672040
:4002800050574d20666f7220736572766f20312e0053746f7070696e672050574d20666f7220736572766f20302e0053657474696e6720736572766f20312070756c7365b2
:4002c00020776964746820746f3a200053657474696e6720736572766f20302070756c736520776964746820746f3a200053657474696e672050574d20647574792063792a
:40030000636c6520746f3a200053657474696e672076656c6f6369747920746f3a2000506172616d3a2000436f6d6d616e643a20004b49505220626f747320726f6c6c20f7
:400340006f757421003300310032002303210022004700450046003703350036002f002dff2e00430041ff42002700251f26e72b00294e2a034b00491f4ae74f004d4e4edd
:40038000033f003d003e003b0039003a006028660063056500e600e700d600b010b100b200b333b433b501b610b855b900ba10bb33bc33bd10be00c001c100c220c333c4f2
:4003c00033c580c620c855c900ca30cb33cc33cd00ce006c006d006e006f00ff3020310e3240202221e022404420450c4640342235c036402c212d162e4440214111424594
:40040000240125162640282129362a47480149164a404c214d364e473c053df13e40380d39013a4561006900600062006733683363006600d100d300d000d200e1b1e200f7
:40044000df19de00dd00e700ff002020202020202020203030303030202020202020202020202020202020202020904040404040404040404040404040400c0c0c0c0c0cfb
:400480000c0c0c0c4040404040404009090909090901010101010101010101010101010101010101014040404040400a0a0a0a0a0a02020202020202020202020202020228
:4004c00002020202024040404020000000000000000000000000000000000000000000000000000000000000000000000000000000000000000000000000000000000000d2
:4005000000000000000000000000000000000000000000000000000000000000000000000000000000000000000000000000000000000000000000000000000000000000bb
:4005400000000000000000000000152a0d640d990dce0e120e710ed00ef10f120f530f940fbf0fea101810401068109070ef620000711062008a62017570ef6203756202ae
:400580008a711062020062030070ef62010062040071106204f062050f70ef62070f620620711062060062070070ef62050062080471106208076209f870ef620b08620a78
:4005c000d17110620a28620b2870ef620928620c007110620c00620d0070ef620f00620e007110620e00620f0070ef620d00621000711062100062110070ef621300621232
:4006000000711062120062130070ef621100621400711062140062150070ef621700621600711062160062170070ef621500621800711062180062190070ef621b00621aba
:40064000007110621a00621b0070ef621900621c007110621c00621d0070ef621f00621e007110621e00621f0070ef621d0070ef7f7c06787c056c7f1070ef5000675003ad
:4006800057457c0693500167500357dc7c069370ef207f380210084f56fc00d00456fc01182070ef62e30010082839ffa01f4f48fc01a003711054fd18207509001008280c
:4006c0004f59fd610018207509008fd738fc703f71c07f7e08105dd30858015d3f082108b00418805e1821e0a0122c00493e002120a050413ffe433f0180485d3e4700014c
:40070000b0413907b0142e000162d300703f7180560200703f7100802a3920c02662d3003c010fc011703f7180560200703f71002e0010800e703f71805402703f7100759e
:400740005a011860d320187e43e14043e1807f41e1bf41e17f7f71102101a00743381070ef7f4138ef70ef7f2901603b603f912a7f413bfe413ffe7f60397f5d3b7f5d3ebd
:400780007f5d3f7f210171103901a0064138ef800443381070ef7f082101a00643e180800441e17f182102a00643e140800441e1bf7f3031323334353637383941424344ee
:4007c00045460867676767210fffe7900f18210fffe090087f4b9fea5b9fe77f493b10affc60397f493f08affc5d3e7f5d3f082108b00418800b5d3e4b1821a0b0034b7f97
:4008000050007f5d3f21e8082108b0071829014b80071821e04b5d3e7f70bf60d35200a0069fb9758ff8703f71c07f70bf62d3074f52fba01a7bfb52fc59fd60d352004914
:400840003b10affc60394f62d30777fd8fe4703f71c07f4f3dfa00b0063dfb00a01d1052fc59fd28493b10affc60392007fd010ffc0017fb011ffa008fdb703f71c07f0806
:400880001028a00b9f56201875dff5748ff238fe7f500d9f47500a9f437f62d00055020062d00055010026000062d0005526007f62d000510021017f62d000510021f026f6
:4008c000000f7f62d00051017f70bf62d000500202265c62d3005200b0041080333920b01175762652003c260fbff310560000801f107576263c260faff35200a0123920fc
:40090000bff156000076263c260fb00455260f20103d0000b00a2057005b703f71c07f205000703f71c07f62d000500202265c50007f7e43df087f41dff77f434b017f415c
:400940004bfe7f60495b604d7f604a5b604e7f5d4e5c5d4a7f4f5d4e085d4a08414bfe71105d490862490070ef5d4c5d4e085d485d4a085200604e5201604a7110520260ca
:400980004970ef434b01182038fd703f71c07f7e43e1047f41e1fb7f4327017f4127fe7f60255b60297f60265b602a7f5d2a5c5d267f4f5d2a085d26084127fe71105d251b
:4009c0000862250070ef5d285d2a085d245d26085200602a5201602671105202602570ef432701182038fd703f71c07f7e43df017f41dffe7f4343017f4143fe7f60417f60
:400a000060427f5d427f4f5d42084143fe71105d410862410070ef5d405d42085200604271105201604170ef4343011838fe703f71c07f7e43e1087f41e1f77f432f017fe3
:400a4000412ffe7f602d7f602e7f5d2e7f4f5d2e08412ffe71105d2d08622d0070ef5d2c5d2e085200602e71105201602d70ef432f011838fe703f71c07f43e1207f41e154
:400a8000df7f4337017f4137fe7f7e43df027f41dffd7f085ddf0841dffd71105d46086246005d450862450470ef434701711018604518604670ef62dbfd1860df187f41ec
:400ac00047fe7f43e1017f41e1fe7f4323017f4123fe7f43e1107f41e1ef7f085de10841e1ef71105d32086232005d310862310470ef433301711018603118603270ef6242
:400b0000dbef1860e1187f4133fe7f104f380490d780cf5d08215062d000532b5d08212862d0005329107c07ec20540062d0003c2700b0223d0000a01d62d0003c2800a04d
:400b4000081052007c07dc2062d000552701520054015600003d0000a08862d0003c2700a08062d00050011057a12820531a52003a1ab03b62d00055270062d0005124039d
:400b80000362d000531962d00051230b0262d00060d550003f19520208520308520108912e38fd62d000552400552300803462d0003c2800a0081052007c07dc2062d000a2
:400bc0005124030362d000531962d00051230b0262d00060d552003f1962d00076240e23008f3138fc208fff104f3801107c0acb7c0a827c0adb7c0a937c0ac37c0a7a7c39
:400c00000ad37c0a8b7c0a3c7c09f57c09987c093b50007c07682043e02043e10143e1207101107c089150030850315c187c087f7c08912071104104fb4105fb70cf4107fe
:400c4000fb71104104f74105f770cf4107f7711043050443050870cf5d0462d000531a261a085d04531826180451182a1a540050011057a02820531a52003a1ab00762d0b2
:400c80000055280171104104fb4105fb70cf4107fb71104104f74105f770cf4107f7430704711043050470cf430708711043050870cf38ff207f104f3802560100560000e2
:400cc00062d000520153195200531a38fe207f104f380262d0003c2800a033107c089150030850275c187c087f201052fc7c07dc7c0891500308501f5c187c087f2010524a
:400d0000fa0852fb5c187c08197c08912052fc540156000052011161520031801980c399507013015200318062d000531450801a14c38662d00052011161531952001900e3
:400d4000531a65196b1a06194c0e1a05511a1058190828531a1875090028531920511a085119087f62d0003c2800a373107c089150030850095c187c087f2052fa0852fb77
:400d8000087c11ce38fe1062d000511a085119207c07d57c089120834662d0003c2800a33e107c089150020850ed5c187c087f2052fa0852fb087c11ce38fe1062d000516e
:400dc0001a085119207c07d57c089120831162d00052fb531952fa60d550003f19107c0891209ed2500008500a0862d000511a0851190852fa0852fb087c130f38fa1062a1
:400e0000d000511a0851195c187c08197c08912082cd62d0003c2800a02c107c089150020850cc5c187c087f2052fa0852fb087c11ce38fe1062d000511a085119207c07e0
:400e4000d57c0891205d2762d000531a471a01b006107c09982052fa0852fb087c11ce38fe1062d000511a085119207c09a620826e62d0003c2800a02c107c08915002084b
:400e800050ab5c187c087f2052fa0852fb087c11ce38fe1062d000511a085119207c07d57c0891205d4b62d000531a471a01b006107c093b2052fa0852fb087c11ce38fe11
:400ec0001062d000511a085119207c094920820f62d0003c2800a013107c089150020850915c187c087f7c089120107c099c2081ee62d0003c2800a013107c089150020857
:400f000050775c187c087f7c089120107c093f2081cd62d0003c2800a010107c089150020850655c187c087f2062d000511e62d000531962d000511d62d000100851192038
:400f40007c07d52062d0003c2800a193107c089120818c62d0003c2800a010107c089150020850535c187c087f2062d000512262d000531962d000512162d0001008511943
:400f8000207c07d52062d0003c2800a152107c089120814b62d0003c2800a013107c089150020850425c187c087f7c08912062d000551b00551c00551d00551e00812062fe
:400fc000d0003c2800a013107c089150020850315c187c087f7c08912062d000551f0055200055210055220080f562d0003c2800a013107c089150020850215c187c087f31
:401000007c0891201050007c0a4750007c0a007c0a407c09f92080c762d0003c2800a013107c089150020850025c187c087f7c0891204304104304404108fd41047f809f00
:4010400062d0003c2800a013107c089150010850e25c187c087f7c0891204104ef4104bf430802430480807762d0003c2800a013107c089150010850c65c187c087f7c08b0
:4010800091204304104104bf4108fd430480804f62d0003c2800a013107c089150010850a95c187c087f7c0891204104ef43044043080241047f802762d0003c2800a0062d
:4010c000107c0891201050010850a25c187c087f2062d0003c2800a006107c08912038fe207f71c0085dd0085d08215062d000532562d0003c2b00b01a62d0003c2520b0af
:401100001262d000061e010e1d000e1c000e1b00802062d0003c2b00b01862d0003c2508b01062d000161e011e1d001e1c001e1b001860d0187e71c0085dd0085d0821285d
:4011400062d000532a62d0003c2900b01a62d0003c2a10b01262d0000622010e21000e20000e1f00802062d0003c2900b01862d0003c2a04b01062d0001622011e21001eed
:4011800020001e1f001860d0187e104f7c119520703f71c07f5dd00862d00050005313531455121066fc6cfb6b136b1451131bfa51141bf9c009531452fa1c1377fc7a1297
:4011c000bfe3511354fa511454f91860d07f104f3804800677fc0ffb0062d00052fc531952fb60d43e1953195000085119087c150938fe62d0003c1a00bfda3c1900bfd5b0
:4012000056030056020062d00052fc531952fb60d43e19392db00e56030156020077fc0ffb00801762d00052fc531952fb60d43e19392bb00677fc0ffb0056010056000047
:40124000807b62d00052fc531952fb531a5119010154fc511a090054fb520153175200531855150a5516005514005513003c1600b0063c1500a01a70fb6e166e15d00c6261
:40128000d0005117041451180c1365176b188fde5f17145f181362d000511a60d43e195319551a0051170219531951180a1a531a511911305401511a1900540062d000528e
:4012c000fc531952fb60d43e1953195000085119087c14e838fe62d0003c1a00bf653c1900bf603d0200b0063d0300a01462d00052017311ff531952007319ff531a800c77
:4013000062d000520153195200531a38fc207f104f380952fa540352f954023df900b02f3dfa00b02a62d00052fc531952fb60d550303f1952fc0101531952fb090060d593
:4013400050003f1952fc531952fb531a819752fa110052f931801980d0293df700b0243df80ab01f56060162d0005203735319520273531a511901015403511a09005402b4
:40138000800456060052fc540152fb540062d00052f70852f8085202085203087c118a38fe18531918531a51195408511a54075009130852073180531450801a14c028626c
:4013c000d000520153195200531a511901015401511a09005400520801305318511a60d551183f19802662d000520153195200531a511901015401511a0900540052080185
:40140000575318511a60d551183f1952f70852f80852020852030862d0007c118a18540318540238fe3d0200bf643d0300bf5f3d0600a02062d000520153195200531a510d
:401440001901015401511a09005400511a60d5502d3f1962d000520153195200531a511901ff5401511a09ff5400511a60d550003f1952fc540552fb5404805462d000529d
:40148000055319520460d43e195406520553195204531a511901015405511a0900540452015317520060d43e175318511a60d551183f19520153195200531a511901ff54c9
:4014c00001511a09ff5400511a60d552063f195205130152041b00cfa462d00052fc531952fb531a38f7207f104f62d00052fc014a531952fb090410581928205319551a7d
:4015000000261904261a00207f104f62d00052fc014a531952fb090410581928205319551a00261910261a00207f001b000b00270005ff0030303030303030303030303036
:40154000303030303030303030303030303030303030303030303030303030303030303030303030303030303030303030303030303030303030303030303030303030306b
:40158000303030303030303030303030303030303030303030303030303030303030303030303030303030303030303030303030303030303030303030303030303030302b
:4015c00030303030303030303030303030303030303030303030303030303030303030303030303030303030303030303030303030303030303030303030303030303030eb
:4016000030303030303030303030303030303030303030303030303030303030303030303030303030303030303030303030303030303030303030303030303030303030aa
:020000040010ea
:020000040020da
:02000000493a7b
:00000001ff
